:0A197A00AB14AA15A916AD1BAC1A98
:041984008C1E8D1F09
:101988007F01120F65FEF8EF088002C333D8FCF41C
:10199800F580E475F001120F90FEE5F064074E70D3
:1019A80005F5F0120FFDAF1FAE1E121B957580FFD7
:0119B800220C
:0A141E008E128F138B148A158916A5
:10142800121ACFE51260030214FBE513146043148B
:1014380070030214C6240260030214FBAB17AA1837
:10144800A919120F65FFAEF01216F5AB17AA18A965
:1014580019120F65D39400E5F0648094805003025C
:1014680014FB12197AAB17AA18A91974FFF5F00220
:101478000FC5E4F51CF51DAB17AA18A919120F65BD
:10148800FFAEF01216F5AB17AA18A919120F65D3FB
:101498009400E5F064809480401012197AAB17AA82
:1014A80018A91974FFF5F0120FC5051DE51D700286
:1014B800051CC39402E51C6480948040BA22AB17D3
:1014C800AA18A919120F65FFAEF0D39400EE648034
:1014D8009480401830A7151216F512197AAB17AA7E
:1014E80018A91974FFF5F0120FC580D27F647E0029
:0314F800121B952F
:0114FB0022CE
:10133F00E4F508F509F50A750B32F50CF50DF50E08
:10134F00F50FF510751164F593F594F591F592F588
:10135F0095F596F5B1F5B2F5B3F5B4F5C9F5CAF54E
:10136F00CBF5CCF5E1F5E27F64FE121B951219F86F
:10137F001214FC121ACF121BAC8510178511187599
:10138F001900751A00751B0A7B007A007908AF0FD8
:10139F00AE0E121856AD11AC10AF0FAE0E121048A4
:1013AF007B007A00790C121A9CAF0DAE0C1219B992
:1013BF0020A6C6121BAC121ACFE50D6403450C60B4
:1013CF0007AF0BAE0A1216F57F647E00121B953025
:1013DF00A7377517007518007519107B007A0079FB
:1013EF000EAF0DAE0C121A3120A6E475170075184A
:1013FF000075190A85101A85111B7B007A00790870
:0F140F00AF0DAE0C12141E80C6121ACF02138836
:101A9C008B128A13891420A40D120F6545F0600671
:101AAC0074FFF5F0801620A519AB12AA13A9141215
:101ABC000F65640345F0600AE475F001120FC5125E
:031ACC001BAC222E
:101B95007DA57C06ED1D70011C144C70F7EF1F70C0
:061BA500011E144E70EA5F
:011BAB002217
:051C4700121C4CD2C28A
:0B1C4C0000000000000000000000226B
:101BFF008F26121BEBD2C0C2C18526E8121C47C22A
:021C0F00C222EF
:061B46007D017C007F011F
:101B4C008F26ED4C6003121BEBC2C0C2C18526E888
:061B5C00121C47C2C22268
:101BEB0075E8FFC2C0D2C1121C47E5E820E7FBC273
:041BFB00C2AFE8226B
:1019F800D2C37F0A7E00121B95C2C47F0A7E0012E2
:101A08001B95D2C47F647E00121B957D017C007FEC
:101A180030121B4C121B467D017C007F06121B4CAA
:091A28007D017C007F0C021B4CC7
:101BAC00121B467D017C007F34121B4C7D017C0096
:051BBC007F30021B4C0C
:0617EE008F228A238B24E8
:1017F400E4F525EDC3940150027D01EDD39404403A
:10180400027D0453220FED24FE600F146011146056
:101814001324037012430780800D4307908008430C
:10182400078880034307987D017C00121B4CE52444
:101834002525F582E43523F583E493FFC394204002
:1018440010E522D3940F50E6121BFF0525052280D4
:01185400DDB6
:011855002270
:100003000000000000000000002F000000000700B7
:10001300070000147F147F1400242A7F2A12006231
:1000230064081323003649552250000005030000DD
:1000330000001C224100000041221C000014083E65
:1000430008140008083E0808000000A0600000082B
:10005300080808080000606000000020100804027F
:10006300003E5149453E0000427F4000004261513D
:100073004946002141454B31001814127F100027D7
:1000830045454539003C4A4949300001710905039A
:1000930000364949493600064949291E00003636CB
:1000A300000000005636000000081422410000142E
:1000B300141414140000412214080002015109060B
:1000C30000324959513E007C1211127C007F49498C
:1000D3004936003E41414122007F4141221C007FBD
:1000E30049494941007F09090901003E4149497ACB
:1000F300007F0808087F0000417F41000020404145
:100103003F01007F08142241007F40404040007FB0
:10011300020C027F007F0408107F003E4141413EF4
:10012300007F09090906003E4151215E007F09193C
:1001330029460046494949310001017F0101003F39
:100143004040403F001F2040201F003F4038403FB9
:10015300006314081463000708700807006151491D
:10016300454300007F41410000552A552A550000B0
:1001730041417F000004020102040040404040402E
:10018300000001020400002054545478007F4844C6
:10019300443800384444442000384444487F0038FD
:1001A3005454541800087E0901020018A4A4A47C26
:1001B300007F080404780000447D400000408084F0
:1001C3007D00007F102844000000417F4000007C38
:1001D30004180478007C0804047800384444443844
:1001E30000FC242424180018242418FC007C080490
:1001F300040800485454542000043F444020003C69
:100203004040207C001C2040201C003C4030403CEF
:10021300004428102844001CA0A0A07C004464547F
:100223004C441414141414140000000000000000C3
:100233000000000000000000000000F800000000C3
:10024300000000333000000000100C06100C060004
:10025300000000000000000040C07840C07840006B
:10026300043F04043F040400007088FC08300000CD
:10027300001820FF211E0000F008F000E018000025
:1002830000211C031E211E0000F0088870000000DE
:100293001E2123241927211010160E000000000030
:1002A3000000000000000000000000E0180402004D
:1002B300000000071820400000020418E0000000BE
:1002C3000040201807000000404080F080404000BC
:1002D3000202010F01020200000000F00000000012
:1002E3000101011F010101000000000000000000E6
:1002F30080B070000000000000000000000000005B
:1003030000010101010101010000000000000000E3
:10031300003030000000000000000000806018047E
:10032300006018060100000000E010080810E0005B
:10033300000F102020100F00001010F80000000024
:100343000020203F2020000000700808088870006B
:1003530000302824222130000030088888483000EB
:100363000018202020110E000000C02010F800000B
:1003730000070424243F240000F8088888080800A4
:100383000019212020110E0000E0108888180000B9
:10039300000F112020110E0000380808C83808008B
:1003A3000000003F0000000000708808088870000B
:1003B300001C222121221C0000E010080810E0008C
:1003C3000000312222110F00000000C0C000000015
:1003D300000000303000000000000080000000003A
:1003E3000000806000000000000080402010080032
:1003F30000010204081020004040404040404000FB
:1004030004040404040404000008102040800000D5
:100413000020100804020100007048080808F000DA
:100423000000003036010000C030C828E810E000AA
:100433000718272423140B000000C038E000000035
:10044300203C23020227382008F88888887000009F
:10045300203F202020110E00C03008080808380073
:10046300071820202010080008F808080810E000EA
:10047300203F202020100F0008F88888E80810008B
:10048300203F20202320180008F88888E80810005F
:10049300203F200003000000C03008080838000097
:1004A30007182020221E020008F808000008F80898
:1004B300203F210101213F20000808F8080800001F
:1004C3000020203F2020000000000808F808080052
:1004D300C08080807F00000008F888C028180800CA
:1004E300203F20012638200008F808000000000003
:1004F300203F20202020300008F8F800F8F80800FA
:10050300203F003F003F200008F830C00008F808F3
:10051300203F200007183F00E01008080810E00003
:100523000F10202020100F0008F808080808F0001A
:10053300203F210101010000E01008080810E0003D
:100543000F18242438504F0008F8888888887000D2
:10055300203F2000030C3020007088080808380072
:100563000038202121221C00180808F80808180068
:100573000000203F2000000008F808000008F808E9
:10058300001F202020201F000878880000C838089A
:10059300000007380E010000F80800F80008F80012
:1005A300033C0700073C03000818688080681808AC
:1005B30020302C03032C30200838C800C83808002A
:1005C3000000203F2000000010080808C838080079
:1005D3002038262120201800000000FE020202001D
:1005E3000000007F40404000000C30C000000000CD
:1005F300000000010638C00000020202FE000000F5
:10060300004040407F00000000000402020204009A
:1006130000000000000000000000000000000000D7
:1006230080808080808080800002020400000000BF
:1006330000000000000000000000808080800000B7
:100643000019242222223F2008F8008080000000A5
:10065300003F112020110E00000000808080000068
:10066300000E112020201100000000808088F80077
:10067300000E112020103F200000808080800000A9
:10068300001F222222221300008080F0888888180D
:100693000020203F20200000000080808080800018
:1006A300006B94949493600008F8008080800000AD
:1006B300203F210000203F20008098980000000088
:1006C3000020203F202000000000008098980000B8
:1006D30000C08080807F000008F8000080808000D8
:1006E300203F24022D302000000808F800000000FD
:1006F3000020203F202000008080808080808000B8
:10070300203F20003F20003F808000808080000049
:10071300203F210000203F200000808080800000D7
:10072300001F202020201F00808000808000000008
:1007330080FFA12020110E00000000808080800037
:10074300000E112020A0FF80808080008080800028
:1007530020203F2120000100000080808080800055
:100763000033242424241900008080E080800000CA
:100773000000001F20200000808000000080800017
:10078300001F202020103F20808080000080808078
:1007930000010E3008060100808000800080808008
:1007A3000F300C030C300F0000808000808080002D
:1007B3000020312E0E312000808080000080808058
:1007C30080818E7018060100008080808080800008
:1007D3000021302C2221300000000000807C020226
:1007E30000000000003F404000000000FF00000048
:1007F30000000000FF0000000002027C80000000F7
:100803000040403F00000000000601010202040412
:100813000000000000000000484AFA0AFE09F949F6
:10082300A80000F00000FF0000000000000000002E
:10083300000000000000000022110B04FF04091255
:100843002300000F40807F00000000000000000034
:10085300000000000000000080804020504844C396
:100863004448502040808000000000000000000049
:1008730000000000000000000040221A0242827FB4
:100883000202020A126000000000000000000000E3
:10089300000000000000000002E222223E0000F9F6
:1008A3004A4CF84C4AF90000000000000000000028
:1008B3000000000000000000004382423E001013CD
:1008C3001212FF12121310000000000000000000BB
:1008D300000000000000000004844434048F0484FA
:1008E300744F444444C404000000000000000000AE
:1008F300000000000000000049C94D2B2928010019
:10090300020C4080403F0000000000000000000097
:100913000000000000000000202020BEAAAAAAAA0E
:10092300AAAAAABE202020000000000000000000A8
:100933000000000000000000008080AFAAAAAAFF08
:10094300AAAAAAAF808000000000000000000000F7
:1009530000000000000000002030AC6320180004F9
:100963000404FC0404040000000000000000000074
:100973000000000000000000226722121212404013
:1009830040407F4040404000000000000000000065
:10099300000000000000000000C0301F1010F00035
:1009A30000FF204080000000000000000000000065
:1009B3000000000000000000814021120C03000031
:1009C30000FF000000030000000000000000000022
:1009D30000000000000000002030AC63201880906D
:1009E30090FF90494A4840000000000000000000CA
:1009F3000000000000000000226722121212404093
:100A030020130C142241F800000000000000000035
:100A1300000000000000000080828282FE82828249
:100A23008282FE82828280000000000000000000BB
:100A33000000000000000000008040300F000000B4
:100A43000000FF00000000000000000000000000A4
:100A5300000000000000000000001011161010F04C
:100A6300101014131000000000000000000000002C
:100A730000000000000000008181414121110D03AD
:100A83000D112141418181000000000000000000A0
:100A930000000000000000000000181610D0B897F6
:100AA300909090929410000000000000000000005D
:100AB30000000000000000000020108C83804146ED
:100AC300281028444380800000000000000000003C
:100AD30000000000000000000000FC565554FC001C
:100AE30010101010FF1010000000000000000000A4
:100AF3000000000000000000024223124A867F002B
:100B0300000146807F00000000000000000000009C
:100B13000000000000000000407C407F484840F295
:100B2300121AD61212F202000000000000000000A8
:100B33000000000000000000908E404F201E804FF8
:100B430020180710204F8000000000000000000064
:100B530000000000000000000014A4442434AD662B
:100B630024940444A41400000000000000000000CA
:100B7300000000000000000008090808090909FD39
:100B830009090B0808090800000000000000000024
:100B930000000000000000004042CC0000FE8292F2
:100BA30092FE929282FE000000000000000000000E
:100BB300000000000000000000003F10887F001EBE
:100BC3001212125E807F000000000000000000008F
:100BD3000000000000000000044444445F44C44497
:100BE30044445F44C404040000000000000000000B
:100BF3000000000000000000000000000000FF00F3
:100C030000081008070000000000000000000000BA
:100C1300000000000000000004244484649C403071
:100C23000FC808082818000000000000000000009A
:100C3300000000000000000010080601824C20188C
:100C4300060106182040800000000000000000009C
:100C53000000000000000000404042CC0000FC0403
:100C63000200FC0404FC000000000000000000007F
:100C730000000000000000000040201F20404F44FF
:100C830042407F4244434000000000000000000057
:100C930000000000000000008060F80704E4242442
:100CA30024FF242424E404000000000000000000CA
:100CB30000000000000000000000FF0080814529C3
:100CC300112F4141818180000000000000000000DD
:100CD30000000000000000000000FE22222222FE8D
:100CE30022222222FE00000000000000000000007B
:100CF300000000000000000080601F020202027F6B
:100D0300020242827F000000000000000000000099
:100D13000000000000000000008060F80740484821
:100D2300E85F484848404000000000000000000021
:100D33000000000000000000010000FF0000020BA3
:100D43001222D20A0600000000000000000000008A
:100D530000000000000000000000FC04D4545454C0
:100D6300D4047F84C53604000000000000000000A6
:100D73000000000000000000886601006382829288
:100D8300AB8482C10224CF000000000000000000F9
:100D9300000000000000000080809E9292929EE07E
:100DA300809EB2D2929E80000000000000000000EE
:100DB30000000000000000000808F4949292F10083
:100DC30001F2929494F80800000000000000000073
:100DD30000000000000000000000E28282828282A4
:100DE300828282FE0000000000000000000000007C
:100DF300000000000000000000003F404040404071
:100E03004040404040780000000000000000000027
:100E13000000000000000000000000FC44444445C2
:100E230046444444447C00000000000000000000ED
:100E330000000000000000004020180700FC4444AC
:100E43004444444444FC000000000000000000004F
:100E5300000000000000000000F80122202222A26E
:100E6300FA22222202FE000000000000000000001F
:100E7300000000000000000000FF00080402112031
:100E83001F000040807F0000000000000000000001
:080E9300000000000000000057
:091C8F00D294D293C293C29422B4
:071C9800D294C293D2932203
:0B1C5700121B27121C62AF04121B2797
:051C6200D294C294229F
:071B2000AC07121C8F7F7857
:101B2700C294E4FEAD07530580BD8004D2938002C2
:0E1B3700C293EF25E0FFD294C2940EBE08E6E2
:011B4500227D
:0E1C6700121B20121C62E4FF121C57021C9874
:0E1C7500121B20121C627F40121C57021C988A
:101B6200F583E5822BF582E43583F583E493FF7DEB
:011B72000171
:0A1B7300ED6003021C75121C6722CE
:051AF900E904FDAF2926
:101AFE00AB07ED24B0FFE4FD121B73EB54F0C4549E
:101B0E000F4410FFE4FD121B73EB540FFFE4FD02B4
:021B1E001B7337
:101BC100E4FD7F8D121B73E4FD7F14121B73E4FD92
:051BD1007FAF021B7351
:101BD600E4FD7F8D121B73E4FD7F10121B73E4FD81
:051BE6007FAE021B733D
:101ACF00E4FBEB24B0FFE4FD121B73E4FDFF121BDC
:101ADF0073E4FD7F10121B73E4FA7D01E4FF121B08
:091AEF00730ABA80F50BBB04D99F
:011AF80022CB
:061670008F29A905AF035C
:10167600E4FBEF24E0FAE52C64107049AF29121A56
:10168600FEE4FB75F010EAA42BF582E435F0F58351
:10169600E582242BF582E5833402121B6C0BBB0812
:1016A600E2121AF9E4FB75F010EAA42BF582E43590
:1016B600F0F583E5822433F582E5833402121B6C50
:1016C6000BBB08E222E52C64087023121AF9E4FB2E
:1016D60075F006EAA42BF582E435F0F583E582245D
:0E16E60003F582E5833400121B6C0BBB06E299
:0116F40022D3
:041B7D008F36A905F1
:101B81007F017E00AD0119ED6009AD367C00120EBA
:031B9100C880F118
:011B9400222E
:081774008F2D8D2E8A2F8B3082
:10177C00E4F535F533E533C395315065C3E5319563
:10178C003314FD7F0A121B7DAC2FAD30CFCDCFCEE5
:10179C00CCCE120EDA7C007D0A120EDA8D34E535D1
:1017AC007023E53114FFE533C39F5019E5347012F3
:1017BC00E532C3138533F0A4252DFF85322C7B2015
:1017CC008016753501E532C3138533F0A4252DFF42
:1017DC00E5342430FB85322CAD2E12167005338087
:0117EC009468
:0117ED0022D9
:0A18AC008F208D218B228A238924CE
:1018B600E4F526AB22AA23A9248526827583001285
:1018C6000E9B602AAF2605268F82758300120E9B1B
:1018D600FB85252CAD21AF20121670E525B4080432
:0E18E60074068004E525C3132520F52080C577
:0118F40022D1
:0618F5008F29AA03A905DA
:1018FB00E4F52A121AFEE4FB75F040EAA4241BF56A
:10190B0082E5F03408121B62052A0BBB10EAE904CE
:10191B00FDAF29121AFEE4FB75F040EAA4243BF557
:0E192B0082E5F03408121B62052A0BBB10EA9D
:01193900228B
:1014FC007FC87E00121B95E4FD7FAE121B73E4FDCA
:10150C00FF121B73E4FD7F10121B73E4FD7F40126E
:10151C001B73E4FD7F81121B73E4FD7FCF121B73E1
:10152C00E4FD7FA1121B73E4FD7FC8121B73E4FD65
:10153C007FA6121B73E4FD7FA8121B73E4FD7F1FB3
:10154C00121B73E4FD7FD3121B73E4FDFF121B739C
:10155C00E4FD7FD5121B73E4FD7F80121B73E4FD49
:10156C007FD9121B73E4FD7FF1121B73E4FD7FDA4C
:10157C00121B73E4FDFF121B73E4FD7FDB121B7364
:10158C00E4FD7F40121B73E4FD7F20121B73E4FD0E
:10159C007F02121B73E4FD7F8D121B73E4FD7F141D
:1015AC00121B73E4FD7FA4121B73E4FD7FA6121BB8
:0B15BC0073E4FD7FAF121B73021ACF17
:041C9F002F353000AD
:081048008E228F23AB05AA04E0
:101050007C037DE8AF03AE02120EDAEF2430F524F4
:101060007C037DE8AF03AE02120EDAAA04AB057C66
:10107000007D64AF03AE02120EDAEF2430F5257C5A
:10108000007D64AF03AE02120EDAAA04AB057C0049
:101090007D0AAF03AE02120EDAEF2430F526AE025F
:1010A000AF037C007D0A120EDAED2430F5277B14A5
:1010B0007D02E4FF1218F57B157D027F121218F5F0
:1010C0007B167D027F241218F57B177D027F361276
:1010D00018F5E5234522700D7B087D027F48121824
:1010E000F57B188013E5236401452270127B097D8E
:1010F000027F481218F57B197D027F5A1218F57B82
:101100000AE4FDFF1218F57B0BE4FD7F121218F5BF
:101110007B0CE4FD7F241218F57B0DE4FD7F361275
:1011200018F5752C107B3AE4FD7F48121670752C6B
:1011300010AB24E4FD7F50121670752C10AB25E423
:10114000FD7F58121670752C10AB26E4FD7F6012DF
:0E1150001670752C10AB27E4FD7F6802167038
:0416F500AB07AA068F
:1016F9007C007D0A120F2FEF2430F51EAE02AF03D6
:101709007C007D0A120F2FED2430F51FE4FBFDFF4D
:101719001218F57B01E4FD7F121218F57B02E4FD36
:101729007F241218F57B03E4FD7F361218F57B043C
:10173900E4FD7F481218F5752C107B3AE4FD7F5AB9
:10174900121670752C10AB1E7D027F121216707561
:101759002C10AB1F7D027F1A1216707BFF7A1C7941
:0B1769009F7525107D027F210218AC47
:06125E008B228A23892483
:10126400E4F525F526121ACF752C107B3EE4FDFF1C
:1012740012167020A70302133820A41AE526452568
:101284006014E526152670021525121ACF752C1048
:101294007B3EE4FD801E20A51FE5266401452560F4
:1012A400170526E52670020525121ACF752C107B2A
:1012B4003E7D02E4FF1216707B08E4FD7F1C1218C9
:1012C400F57B18E4FD7F2E1218F57B097D027F1C47
:1012D4001218F57B197D027F2E1218F5AB22AA2372
:1012E400A924120F6545F07008752C107B3CFD8015
:1012F40007752C107B3C7D027F5A121670E526453B
:1013040025700D20A60AAB22AA23A924F5F0801A81
:10131400E52664014525600302127730A603021214
:1013240077AB22AA23A92475F001120FFD7F647EF6
:0B13340000121B957F647E00021B95D9
:06115E008B228A23892484
:10116400121ACF20A703021257AB22AA23A92412D2
:101174000F65FBAAF07C037DE8FFAE02120EDAEFE6
:101184002430F5257C037DE8AF03AE02120EDAAA03
:1011940004AB057C007D64AF03AE02120EDAEF24CB
:1011A40030F5267C007D64AF03AE02120EDAAA0489
:1011B400AB057C007D0AAF03AE02120EDAEF2430D9
:1011C400F527AE02AF037C007D0A120EDAED24305F
:1011D400F5287B0AE4FD7F1C1218F57B0BE4FD7FE8
:1011E4002E1218F57B0CE4FD7F401218F57B0DE4FC
:1011F400FD7F521218F5752C10AB257D027F2B1242
:101204001670752C10AB267D027F33121670752C68
:1012140010AB277D027F3B121670752C10AB287D16
:10122400027F4312167020A40CAB22AA23A924E443
:1012340075F00A801130A503021167AB22AA23A915
:101244002474FF75F0F6120FC57F647E00121B959F
:0A1254000211677F647E00021B9503
:10193A00B5A5B7A2B5E3BBF000CBABB7A2B5E3BB85
:10194A00F000C1ACB7A2B5E3BBF000C6E4CBFBC95B
:10195A00E8D6C300BAECCDE2B4ABB8D0BFAAB9D8C6
:10196A0000B7A2C9E4C6B5C2CAB5F7BDDA00A1FA82
:101A31008B148A158916EE702CEF14600D14600D4D
:101A410014600D2403701E021C11021C23021C359C
:101A510085171D85181E85191FAB14AA15A9161205
:061A610015C7121BAC22A8
:1019B900EF04FD7A197B787F011217EE7A197B3AC9
:1019C9007D017F021217EE7A197B437D027F021295
:1019D90017EE7A197B4C7D037F021217EE7A197B79
:0F19E900557D047F021217EE7F327E00021B95A0
:101C11007A197B3A7D017F021217EE7F327E000234
:021C21001B9511
:101C23007A197B437D017F021217EE7F327E000219
:021C33001B95FF
:101C35007A197B4C7D017F021217EE7F327E0002FE
:021C45001B95ED
:101A6700EF2403FD7A197B787F011217EE7A197B31
:101A7700557D017F021217EE7A197B5E7D037F0287
:101A87001217EE7A197B6B7D047F021217EE7F32F5
:051A97007E00021B951A
:0615C7008B1A8A1B891C2F
:1015CD00E4F520F52120A70302166FAB1AAA1BA97B
:1015DD001C120F65FFAEF0AB1DAA1EA91F120F65E1
:1015ED00FDACF012104820A410E5214520600AE55D
:1015FD0021152170171520801320A513E5216401F5
:10160D004520600B0521E52170020520121BACAFB2
:10161D0021AE20121A6720A6AC7F327E00121B95D8
:10162D00121BACE520709EE5211460190470967AAA
:10163D00197B5E7D017F011217EEAB1AAA1BA91C47
:10164D0012125E80147A197B6B7D017F011217EEE9
:10165D00AB1DAA1EA91F12115E121ACF121BAC02CE
:02166D0015D294
:01166F002258
:101856008E128F138B148A158916E5134512703B69
:10186600C2A020A140121ACF802030A73820B2FA99
:10187600AB14AA15A916AD18AC17121984AB19AA80
:101886001AA91B74FFF5F0120FC5AB19AA1AA91BEA
:10189600120F65FFAEF01216F580CFE51364014511
:0618A600127002D2A02224
:03000000021C835C
:0C1C8300787FE4F6D8FD75813602133F2F
:100E9B00BB010CE58229F582E5833AF583E022500C
:100EAB0006E92582F8E622BBFE06E92582F8E22256
:0D0EBB00E58229F582E5833AF583E4932270
:100EC800EF8DF0A4A8F0CF8CF0A428CE8DF0A42E3E
:020ED800FE22F8
:100EDA00BC000BBE0029EF8DF084FFADF022E4CCFC
:100EEA00F875F008EF2FFFEE33FEEC33FCEE9DECC5
:100EFA00984005FCEE9DFE0FD5F0E9E4CEFD22ED0B
:100F0A00F8F5F0EE8420D21CFEADF075F008EF2F54
:100F1A00FFED33FD4007985006D5F0F222C398FD45
:050F2A000FD5F0EA22E2
:100F2F00C2D5EC30E709B2D5E4C39DFDE49CFCEEDD
:100F3F0030E715B2D5E4C39FFFE49EFE120EDAC36D
:100F4F00E49DFDE49CFC8003120EDA30D507C3E468
:060F5F009FFFE49EFE224C
:100F6500BB010A89828A83E0F5F0A3E02250068757
:100F7500F009E71922BBFE07E3F5F009E319228919
:0B0F8500828A83E493F5F0740193224C
:100F9000BB010789828A83021032500B09C5F027F2
:100FA000C7C5F01937C722BBFE0F09F8E3C5F02506
:100FB000F0F319E3C838F3E82289828A8374019335
:050FC000F5F0E49322AE
:100FC500BB010789828A8302101C500B09C5F027D3
:100FD500F7C5F01937F722BBFE0D09F8E325F0F345
:100FE500C5F019E338F322F889828A8374019325C1
:080FF500F0C5F0F8E493382286
:100FFD00BB010A89828A83F0E5F0A3F0225006F73F
:0F100D0009A7F01922BBFE06F3E5F009F319223B
:10101C00C5F0F8A3E028F0C5F0F8E582158270025F
:06102C001583E038F022FC
:10103200A3F8E0C5F025F0F0E58215827002158371
:06104200E0C838F0E822CE
:00000001FF
